:020000040800F2
:1000000060070020CD01000895060008990300084C
:10001000910600087D0200080B0C0008000000009B
:10002000000000000000000000000000AD09000812
:10003000810200080000000075080008C10A0008DD
:10004000E7010008E7010008E7010008E7010008F0
:10005000E7010008E7010008E7010008E7010008E0
:10006000E7010008E7010008E7010008E7010008D0
:10007000E7010008E7010008E7010008E7010008C0
:10008000E7010008E7010008E7010008E7010008B0
:10009000E7010008E7010008E7010008E7010008A0
:1000A000E7010008E7010008E7010008E701000890
:1000B000E7010008E7010008E7010008E701000880
:1000C000E7010008E7010008E7010008E701000870
:1000D000E7010008250B0008E7010008E701000818
:1000E000E7010008E7010008E7010008E701000850
:1000F000E7010008E7010008E7010008E701000840
:10010000E7010008E7010008E7010008E70100082F
:10011000E7010008E7010008E7010008E70100081F
:10012000E7010008E7010008E7010008E70100080F
:1001300000F002F800F03AF80AA090E8000C8244BF
:100140008344AAF10107DA4501D100F02FF8AFF29C
:10015000090EBAE80F0013F0010F18BFFB1A43F0A5
:1001600001031847B0130000D0130000103A24BF59
:1001700078C878C1FAD8520724BF30C830C144BF0C
:1001800004680C607047000000230024002500264E
:10019000103A28BF78C1FBD8520728BF30C148BFEA
:1001A0000B6070471FB51FBD10B510BD00F033F8D0
:1001B0001146FFF7F7FF00F083FD00F051F803B49C
:1001C000FFF7F2FF03BC00F030FD00000948804754
:1001D00009480047FEE7FEE7FEE7FEE7FEE7FEE729
:1001E000FEE7FEE7FEE7FEE704480549054A064B41
:1001F00070470000C50A00083101000860010020B6
:1002000060070020600300206003002070477047F3
:10021000704770477047754600F02CF8AE460500F1
:100220006946534620F00700854618B020B5FFF711
:10023000DBFFBDE820404FF000064FF000074FF015
:1002400000084FF0000B21F00701AC46ACE8C009F4
:10025000ACE8C009ACE8C009ACE8C0098D467047FD
:1002600010B50446AFF300802046BDE81040FFF70C
:10027000A6BF000000487047FC00002000BFFEE75A
:1002800070472DE9F041024600250026002000239A
:100290000024002791F803C00CF00F0591F803C06B
:1002A0000CF0100CBCF1000F03D091F802C04CEA26
:1002B000050591F800C0BCF1000F31D01468002092
:1002C0002BE04FF0010C0CFA00F3B1F800C00CEA7F
:1002D00003069E4220D183004FF00F0C0CFA03F767
:1002E000BC4305FA03FC4CEA040491F803C0BCF1DA
:1002F000280F06D14FF0010C0CFA00FCC2F814C014
:100300000AE091F803C0BCF1480F05D14FF0010C91
:100310000CFA00FCC2F810C0401C0828D1D31460AD
:10032000B1F800C0BCF1FF0F34DD546800202EE0AE
:1003300000F1080C4FF0010808FA0CF3B1F800C006
:100340000CEA03069E4221D183004FF00F0C0CFAF9
:1003500003F7BC4305FA03FC4CEA040491F803C01C
:10036000BCF1280F05D100F1080C08FA0CF8C2F80E
:10037000148091F803C0BCF1480F07D100F1080CBC
:100380004FF0010808FA0CF8C2F81080401C082849
:10039000CED35460BDE8F08100BFFEE770B50246E1
:1003A0000024002500230020958A138B1B0445EAB6
:1003B000030626F07F4404EA01068E4201D10120A3
:1003C00000E0002070BD21B1028842F001020280ED
:1003D00004E002884FF6FE731A4002807047000066
:1003E00000B585B00121480500F046FA012108203A
:1003F00000F062FA1C208DF81300C020ADF8100048
:1004000003208DF8120004A91148FFF73AFF1148A4
:1004100000F024F84FF48060ADF80A000001ADF858
:100420000C000D4800904BF6FF70ADF80600002060
:10043000ADF804003020ADF808006946054800F02A
:100440005FF801210348FFF7BEFF05B000BD0000C3
:10045000000C014000540040801A060010B504460C
:100460000B48844209D10121480500F015FA00210A
:100470004FF4001000F010FA08E00121880500F0A8
:100480000BFA00214FF4800000F006FA10BD0000C6
:100490000054004021B1028842F48072028004E0DE
:1004A00002884FF6FF631A400280704721B102882C
:1004B00042F40072028004E002884FF6FF531A40B3
:1004C000028070470CB50246002000230193009380
:1004D00000920B0F019321F07F41019B1BB1009B08
:1004E0001433009303E0090C009B18330093009B26
:1004F0001B680B400BB1012000E000200CBD000088
:100500002DE9F04385B004460D460026B146042788
:10051000DFF8CC80A6884FF6C0700640684600F031
:10052000DBF9DDF808802F48B8FBF0F01FFA80F9FE
:1005300046EA0906A68020884FF6FE710840208012
:1005400000262949286888420CD828684000B8FB52
:10055000F0F087B2042F00DA04273E4309F10100CE
:10056000208427E0E8884BF6FF71884206D128688E
:1005700000EB4000B8FBF0F087B209E0286800EB20
:10058000C00101EB0010B8FBF0F087B247F48047E0
:10059000C7F30B0008B947F0010747F400400643D2
:1005A0004FF4967009FB00F04FF47A7190FBF1F074
:1005B000401C2084A683208840F0010020802688EB
:1005C0004FF6F5300640A88869890843064326801F
:1005D000A88929890843208105B0BDE8F08300007F
:1005E00000127A0040420F00A086010012B141F0D3
:1005F000010102E04FF6FE7319400182704701824B
:100600007047000070B504460D4600BF4FF400313E
:100610001C48FFF757FF0028F8D101211948FFF7C0
:1006200039FF00BF18491748FFF7B8FE0028F9D076
:10063000002278211348FFF7D9FF00BF1349114862
:10064000FFF7ACFE0028F9D021460E48FFF7D7FF90
:1006500000BF0E49891E0B48FFF7A0FE0028F8D006
:1006600029460848FFF7CBFF00BF0849891C054809
:10067000FFF794FE0028F8D001210248FFF716FF8B
:1006800070BD00000054004001000300820007001C
:1006900000BFFEE77047000002490143024A1160B3
:1006A000704700000000FA050CED00E010B5642072
:1006B00000F0E0FAAE2000F0AAFA202000F0A7FA3D
:1006C000102000F0A4FAB02000F0A1FAC82000F039
:1006D0009EFA002000F09BFA102000F098FA4020CB
:1006E00000F095FA812000F092FAFF2000F08FFAD6
:1006F000A12000F08CFAA62000F089FAA82000F0D2
:1007000086FA3F2000F083FAA42000F080FAD3207C
:1007100000F07DFA002000F07AFAD52000F077FA98
:10072000F02000F074FAD92000F071FA222000F0D5
:100730006EFADA2000F06BFA122000F068FADB2083
:1007400000F065FA202000F062FA8D2000F05FFAD8
:10075000142000F05CFAAF2000F059FA10BD70B51B
:1007600004460D4605F1B001C8B200F050FA102160
:1007700041EA141000F04BFA04F00F0141F00100BF
:1007800000F045FA70BD00002DE9F04706468946A5
:1007900017469A464FF0000800240025BAF1010FD1
:1007A00003D0BAF1020F5ED125E020E0785D203859
:1007B00000F0FF087E2E04DD002609F1010000F0A4
:1007C000FF0949463046FFF7CAFF002409E008EB5D
:1007D0004801264A02EB4101085D00F01FFA601C47
:1007E000C4B2062CF3DBB01DC6B2681CC5B2785D7E
:1007F0000028DBD137E032E0785D203800F0FF08D8
:10080000782E04DD002609F1010000F0FF094946B9
:100810003046FFF7A4FF002407E004EB0811144A58
:10082000505C00F0FBF9601CC4B2082CF5DB09F148
:100830000100C1B23046FFF792FF002408E004EB4C
:10084000081108310A4A505C00F0E8F9601CC4B293
:10085000082CF4DB06F10800C6B2681CC5B2785D4E
:100860000028C9D100BF00BFBDE8F087FC0C00081C
:10087000240F00087047000029B1064AD2690243DC
:10088000044BDA6104E0034AD2698243014BDA6126
:10089000704700000010024029B1064A1269024365
:1008A000044B1A6104E0034A12698243014B1A6146
:1008B000704700000010024029B1064A92690243C5
:1008C000044B9A6104E0034A92698243014B9A61A6
:1008D000704700000010024030B5002100220024C3
:1008E00000232D4D6D6805F00C0121B1042905D0C0
:1008F000082923D105E0294D056022E0274D056038
:100900001FE0254D6D6805F47012234D6D6805F4E8
:100910008034022505EB92421CB9214D55430560F8
:100920000BE01D4D6D6805F400351DB11C4D5543A0
:10093000056002E0194D5543056002E0174D056062
:1009400000BF00BF144D6D6805F0F0010909154D99
:100950006B5C0568DD4045600F4D6D6805F4E06136
:10096000090A104D6B5C4568DD4085600A4D6D6875
:1009700005F46051C90A0B4D6B5C4568DD40C560EC
:10098000054D6D6805F44041890B074D6B5CC568EA
:10099000B5FBF3F5056130BD0010024000127A008E
:1009A00000093D001E0000202E000020704710B5F9
:1009B00000F002F810BD00000CB50020019000907E
:1009C0003348006840F480303149086000BF304847
:1009D000006800F4003000900198401C01900098DD
:1009E00018B90198B0F5A06FF1D12948006800F45A
:1009F000003010B10120009001E00020009000982C
:100A0000012843D12348006840F0100021490860C4
:100A10000846006820F0030008600846006840F0BF
:100A2000020008601A484068194948600846406852
:100A300048600846406840F4806048600846406866
:100A400020F47C1048600846406840F4E810486094
:100A50000846006840F08070086000BF0C480068DD
:100A600000F000700028F9D00948406820F0030029
:100A7000074948600846406840F00200486000BFEF
:100A80000348406800F00C000828F9D10CBD0000B4
:100A90000010024000200240042808D14FF0E0215D
:100AA000096941F004014FF0E022116107E04FF0C5
:100AB000E021096921F004014FF0E0221161704743
:100AC0007047000010B51348006840F0010011495C
:100AD000086008464068104908400E4948600846CA
:100AE00000680E4908400B4908600846006820F479
:100AF000802008600846406820F4FE0048604FF4FB
:100B00001F008860FFF753FF4FF000600449086042
:100B100010BD0000001002400000FFF8FFFFF6FECD
:100B200008ED00E010B540F225511D4800F03EF8F8
:100B300010B31B4800F064F8C4B21A48008800F4EF
:100B40000040C8B91748008800F4804060B10A2C02
:100B500003D000201349088020E01248008840F4A8
:100B600000401049088019E00D2C06D10D4800887E
:100B700040F480400B49088010E00A480088C0F328
:100B80000D0009490C5407480088401C054908809D
:100B900008460088C72801DD0020088010BD00003D
:100BA000003801401C0000203400002070B50246CF
:100BB000002400230025002040F66A16B14200D12F
:100BC00000BFC1F3421501F01F03012606FA03F32B
:100BD000012D02D19689334006E0022D02D1168AFA
:100BE000334001E0968A33400C12012606FA04F4E1
:100BF0001688344013B10CB1012000E0002070BD14
:100C000001468888C0F30800704700BFFEE710B5B2
:100C1000044621460020FFF7F5FC10BD10B5044640
:100C200021464020FFF7EEFC10BD014600BF704793
:100C300010B56FF00400FFF72FFF0A4800680A495B
:100C4000B0FBF1F0094908700846007800EB40015C
:100C5000C1EBC0104FF6FF7101EAC00004490880E3
:100C600010BD00000000002000127A0014000020D7
:100C7000160000200146114A12884A434FF0E02333
:100C80005A6100229A611A46126942F001021A6101
:100C900000BF4FF0E022106900F001021AB100F429
:100CA0008032002AF5D04FF0E022126922F00102D2
:100CB0004FF0E0231A6100229A617047160000206D
:100CC000FFF7B6FF4FF4A060FFF7E6FCFFF788FBE5
:100CD000FFF7ECFC0BE0012305A202211F20FFF728
:100CE00053FD022302A205211520FFF74DFDF2E777
:100CF00048656C6C6F20576F726C640000000000D8
:100D000000000000002F0000000007000700001492
:100D10007F147F1400242A7F2A12006264081323A0
:100D200000364955225000000503000000001C2237
:100D30004100000041221C000014083E0814000875
:100D4000083E0808000000A0600000080808080825
:100D5000000060600000002010080402003E5149BD
:100D6000453E0000427F400000426151494600215B
:100D700041454B31001814127F1000274545453975
:100D8000003C4A49493000017109050300364949D0
:100D9000493600064949291E000036360000000089
:100DA00056360000000814224100001414141414D4
:100DB000000041221408000201510906003249597D
:100DC000513E007C1211127C007F49494936003E99
:100DD00041414122007F4141221C007F4949494154
:100DE000007F09090901003E4149497A007F08084E
:100DF000087F0000417F4100002040413F01007F0B
:100E000008142241007F40404040007F020C027FD6
:100E1000007F0408107F003E4141413E007F0909E8
:100E20000906003E4151215E007F0919294600460E
:100E3000494949310001017F0101003F4040403FE5
:100E4000001F2040201F003F4038403F006314082F
:100E5000146300070870080700615149454300000A
:100E60007F41410000552A552A55000041417F002D
:100E70000004020102040040404040400000010222
:100E80000400002054545478007F4844443800380B
:100E90004444442000384444487F00385454541893
:100EA00000087E0901020018A4A4A47C007F0804A5
:100EB00004780000447D4000004080847D00007F75
:100EC000102844000000417F4000007C0418047892
:100ED000007C0804047800384444443800FC24248E
:100EE00024180018242418FC007C08040408004876
:100EF0005454542000043F444020003C4040207C97
:100F0000001C2040201C003C4030403C0044281085
:100F10002844001CA0A0A07C004464544C44141439
:100F20001414141400000000000000000000000071
:100F300000000000000000F8000000000000003386
:100F40003000000000100C06100C0600000000002D
:100F50000000000040C07840C0784000043F040416
:100F60003F040400007088FC08300000001820FFD7
:100F7000211E0000F008F000E018000000211C0312
:100F80001E211E0000F00888700000001E2123248E
:100F90001927211010160E000000000000000000AC
:100FA00000000000000000E018040200000000073C
:100FB0001820400000020418E00000000040201843
:100FC00007000000404080F0804040000202010F16
:100FD00001020200000000F0000000000101011FFA
:100FE00001010100000000000000000080B070005E
:100FF00000000000000000000000000000010101EE
:10100000010101010000000000000000003030007C
:101010000000000000000000806018040060180656
:101020000100000000E010080810E000000F102090
:1010300020100F00001010F8000000000020203FDA
:101040002020000000700808088870000030282464
:101050002221300000300888884830000018202005
:1010600020110E000000C02010F80000000704242A
:10107000243F240000F8088888080800001921206F
:1010800020110E0000E0108888180000000F1120C9
:1010900020110E0000380808C83808000000003F82
:1010A000000000000070880808887000001C2221E1
:1010B00021221C0000E010080810E000000031228E
:1010C00022110F00000000C0C0000000000000302E
:1010D0003000000000000080000000000000806080
:1010E0000000000000008040201008000001020401
:1010F00008102000404040404040400004040404E8
:1011000004040400000810204080000000201008A3
:1011100004020100007048080808F00000000030D8
:1011200036010000C030C828E810E0000718272466
:1011300023140B000000C038E0000000203C230214
:101140000227382008F8888888700000203F202077
:1011500020110E00C03008080808380007182020A9
:101160002010080008F808080810E000203F2020A0
:1011700020100F0008F88888E8081000203F202081
:101180002320180008F88888E8081000203F200075
:1011900003000000C03008080838000007182020AD
:1011A000221E020008F808000008F808203F21016C
:1011B00001213F20000808F8080800000020203F17
:1011C0002020000000000808F8080800C080808087
:1011D0007F00000008F888C028180800203F200180
:1011E0002638200008F8080000000000203F2020DA
:1011F0002020300008F8F800F8F80800203F003FF1
:10120000003F200008F830C00008F808203F200008
:1012100007183F00E01008080810E0000F10202019
:1012200020100F0008F808080808F000203F2101EE
:1012300001010000E01008080810E0000F18242445
:1012400038504F0008F8888888887000203F2000B8
:10125000030C30200070880808083800003820216E
:1012600021221C00180808F8080818000000203F78
:101270002000000008F808000008F808001F2020DF
:1012800020201F000878880000C8380800000738B0
:101290000E010000F80800F80008F800033C070001
:1012A000073C0300081868808068180820302C0369
:1012B000032C30200838C800C83808000000203F40
:1012C0002000000010080808C8380800203826212F
:1012D00020201800000000FE020202000000007F33
:1012E00040404000000C30C0000000000000000141
:1012F0000638C00000020202FE000000004040402C
:101300007F00000000000402020204000000000050
:1013100000000000000000000000000080808080CD
:1013200080808080000202040000000000000000B5
:10133000000000000000808080800000001924224E
:1013400022223F2008F8008080000000003F11208A
:1013500020110E000000008080800000000E11208F
:1013600020201100000000808088F800000E11206D
:1013700020103F200000808080800000001F22227B
:1013800022221300008080F0888888180020203FE7
:10139000202000000000808080808000006B9494FA
:1013A0009493600008F8008080800000203F2100B6
:1013B00000203F2000809898000000000020203F7F
:1013C00020200000000000809898000000C080806D
:1013D000807F000008F8000080808000203F240209
:1013E0002D302000000808F8000000000020203FF9
:1013F000202000008080808080808000203F2000AE
:101400003F20003F8080008080800000203F21003E
:1014100000203F200000808080800000001F2020EE
:1014200020201F00808000808000000080FFA1201D
:1014300020110E000000008080808000000E11202E
:1014400020A0FF80808080008080800020203F21BD
:101450002000010000008080808080000033242470
:1014600024241900008080E0808000000000001F1C
:10147000202000008080000000808000001F2020CD
:1014800020103F20808080000080808000010E308E
:101490000806010080800080008080800F300C03EF
:1014A0000C300F0000808000808080000020312EF2
:1014B0000E312000808080000080808080818E70CE
:1014C0001806010000808080808080000021302C80
:1014D0002221300000000000807C02020000000099
:1014E000003F404000000000FF000000000000003E
:1014F000FF0000000002027C800000000040403F2E
:1015000000000000000601010202040400000000C7
:101510000000000034150008000000203400000026
:101520006C01000868150008340000202C0700003A
:101530008801000800A24A0400000000000000002A
:101540000102030406070809000000000000000073
:10155000000000000000010203040102030406076A
:0815600008090204060800005E
:04000005080001CD21
:00000001FF
